{"contracts/TipAttendantsContract.sol":{"TipAttendantsContract":{"abi":[{"anonymous":false,"inputs":[{"indexed":false,"internalType":"address","name":"to","type":"address"},{"indexed":false,"internalType":"uint256","name":"amount","type":"uint256"},{"indexed":false,"internalType":"address","name":"msg","type":"address"}],"name":"TipTransferred","type":"event"},{"inputs":[],"name":"getTips","outputs":[{"components":[{"internalType":"address payable","name":"metamask_wallet","type":"address"},{"internalType":"uint256","name":"tip_amount","type":"uint256"}],"internalType":"struct TipAttendantsContract.Tip[]","name":"","type":"tuple[]"}],"stateMutability":"view","type":"function"},{"inputs":[{"components":[{"internalType":"address payable","name":"metamask_wallet","type":"address"},{"internalType":"uint256","name":"tip_amount","type":"uint256"}],"internalType":"struct TipAttendantsContract.Tip[]","name":"attendantArray","type":"tuple[]"}],"name":"tipAttendants","outputs":[],"stateMutability":"nonpayable","type":"function"}],"evm":{"bytecode":{"linkReferences":{},"object":"608060405234801561001057600080fd5b50610874806100206000396000f3fe608060405234801561001057600080fd5b50600436106100365760003560e01c806388e4a0731461003b578063a2651ddd14610059575b600080fd5b610043610075565b604051610050919061044c565b60405180910390f35b610073600480360381019061006e9190610688565b610134565b005b60606000805480602002602001604051908101604052809291908181526020016000905b8282101561012b57838290600052602060002090600202016040518060400160405290816000820160009054906101000a900473ffffffffffffffffffffffffffffffffffffffff1673ffffffffffffffffffffffffffffffffffffffff1673ffffffffffffffffffffffffffffffffffffffff16815260200160018201548152505081526020019060010190610099565b50505050905090565b60005b81518110156101ec576000828281518110610155576101546106d1565b5b6020026020010151908060018154018082558091505060019003906000526020600020906002020160009091909190915060008201518160000160006101000a81548173ffffffffffffffffffffffffffffffffffffffff021916908373ffffffffffffffffffffffffffffffffffffffff16021790555060208201518160010155505080806101e49061072f565b915050610137565b50600080600081548110610203576102026106d1565b5b90600052602060002090600202016040518060400160405290816000820160009054906101000a900473ffffffffffffffffffffffffffffffffffffffff1673ffffffffffffffffffffffffffffffffffffffff1673ffffffffffffffffffffffffffffffffffffffff1681526020016001820154815250509050806000015173ffffffffffffffffffffffffffffffffffffffff166108fc82602001519081150290604051600060405180830381858888f193505050501580156102cc573d6000803e3d6000fd5b507f7ce6062b9930767e9d811ca59174b61aebb54e70a15f7ac91f5c3eee4b6d9f8d816000015182602001513360405161030893929190610807565b60405180910390a15050565b600081519050919050565b600082825260208201905092915050565b6000819050602082019050919050565b600073ffffffffffffffffffffffffffffffffffffffff82169050919050565b600061036b82610340565b9050919050565b61037b81610360565b82525050565b6000819050919050565b61039481610381565b82525050565b6040820160008201516103b06000850182610372565b5060208201516103c3602085018261038b565b50505050565b60006103d5838361039a565b60408301905092915050565b6000602082019050919050565b60006103f982610314565b610403818561031f565b935061040e83610330565b8060005b8381101561043f57815161042688826103c9565b9750610431836103e1565b925050600181019050610412565b5085935050505092915050565b6000602082019050818103600083015261046681846103ee565b905092915050565b6000604051905090565b600080fd5b600080fd5b600080fd5b6000601f19601f8301169050919050565b7f4e487b7100000000000000000000000000000000000000000000000000000000600052604160045260246000fd5b6104d082610487565b810181811067ffffffffffffffff821117156104ef576104ee610498565b5b80604052505050565b600061050261046e565b905061050e82826104c7565b919050565b600067ffffffffffffffff82111561052e5761052d610498565b5b602082029050602081019050919050565b600080fd5b600080fd5b61055281610360565b811461055d57600080fd5b50565b60008135905061056f81610549565b92915050565b61057e81610381565b811461058957600080fd5b50565b60008135905061059b81610575565b92915050565b6000604082840312156105b7576105b6610544565b5b6105c160406104f8565b905060006105d184828501610560565b60008301525060206105e58482850161058c565b60208301525092915050565b60006106046105ff84610513565b6104f8565b905080838252602082019050604084028301858111156106275761062661053f565b5b835b81811015610650578061063c88826105a1565b845260208401935050604081019050610629565b5050509392505050565b600082601f83011261066f5761066e610482565b5b813561067f8482602086016105f1565b91505092915050565b60006020828403121561069e5761069d610478565b5b600082013567ffffffffffffffff8111156106bc576106bb61047d565b5b6106c88482850161065a565b91505092915050565b7f4e487b7100000000000000000000000000000000000000000000000000000000600052603260045260246000fd5b7f4e487b7100000000000000000000000000000000000000000000000000000000600052601160045260246000fd5b600061073a82610381565b91507fffffffffffffffffffffffffffffffffffffffffffffffffffffffffffffffff82141561076d5761076c610700565b5b600182019050919050565b6000819050919050565b600061079d61079861079384610340565b610778565b610340565b9050919050565b60006107af82610782565b9050919050565b60006107c1826107a4565b9050919050565b6107d1816107b6565b82525050565b6107e081610381565b82525050565b60006107f182610340565b9050919050565b610801816107e6565b82525050565b600060608201905061081c60008301866107c8565b61082960208301856107d7565b61083660408301846107f8565b94935050505056fea264697066735822122063e72bb6ca4371de8b544a5a7e4a5e7607f5d7aa1951ff5b8db6c954bbd07cba64736f6c634300080a0033","opcodes":"PUSH1 0x80 PUSH1 0x40 MSTORE CALLVALUE DUP1 ISZERO PUSH2 0x10 JUMPI PUSH1 0x0 DUP1 REVERT JUMPDEST POP PUSH2 0x874 DUP1 PUSH2 0x20 PUSH1 0x0 CODECOPY PUSH1 0x0 RETURN INVALID PUSH1 0x80 PUSH1 0x40 MSTORE CALLVALUE DUP1 ISZERO PUSH2 0x10 JUMPI PUSH1 0x0 DUP1 REVERT JUMPDEST POP PUSH1 0x4 CALLDATASIZE LT PUSH2 0x36 JUMPI PUSH1 0x0 CALLDATALOAD PUSH1 0xE0 SHR DUP1 PUSH4 0x88E4A073 EQ PUSH2 0x3B JUMPI DUP1 PUSH4 0xA2651DDD EQ PUSH2 0x59 JUMPI JUMPDEST PUSH1 0x0 DUP1 REVERT JUMPDEST PUSH2 0x43 PUSH2 0x75 JUMP JUMPDEST PUSH1 0x40 MLOAD PUSH2 0x50 SWAP2 SWAP1 PUSH2 0x44C JUMP JUMPDEST PUSH1 0x40 MLOAD DUP1 SWAP2 SUB SWAP1 RETURN JUMPDEST PUSH2 0x73 PUSH1 0x4 DUP1 CALLDATASIZE SUB DUP2 ADD SWAP1 PUSH2 0x6E SWAP2 SWAP1 PUSH2 0x688 JUMP JUMPDEST PUSH2 0x134 JUMP JUMPDEST STOP JUMPDEST PUSH1 0x60 PUSH1 0x0 DUP1 SLOAD DUP1 PUSH1 0x20 MUL PUSH1 0x20 ADD PUSH1 0x40 MLOAD SWAP1 DUP2 ADD PUSH1 0x40 MSTORE DUP1 SWAP3 SWAP2 SWAP1 DUP2 DUP2 MSTORE PUSH1 0x20 ADD PUSH1 0x0 SWAP1 JUMPDEST DUP3 DUP3 LT ISZERO PUSH2 0x12B JUMPI DUP4 DUP3 SWAP1 PUSH1 0x0 MSTORE PUSH1 0x20 PUSH1 0x0 KECCAK256 SWAP1 PUSH1 0x2 MUL ADD PUSH1 0x40 MLOAD DUP1 PUSH1 0x40 ADD PUSH1 0x40 MSTORE SWAP1 DUP2 PUSH1 0x0 DUP3 ADD PUSH1 0x0 SWAP1 SLOAD SWAP1 PUSH2 0x100 EXP SWAP1 DIV PUSH20 0xFFFFFFFFFFFFFFFFFFFFFFFFFFFFFFFFFFFFFFFF AND PUSH20 0xFFFFFFFFFFFFFFFFFFFFFFFFFFFFFFFFFFFFFFFF AND PUSH20 0xFFFFFFFFFFFFFFFFFFFFFFFFFFFFFFFFFFFFFFFF AND DUP2 MSTORE PUSH1 0x20 ADD PUSH1 0x1 DUP3 ADD SLOAD DUP2 MSTORE POP POP DUP2 MSTORE PUSH1 0x20 ADD SWAP1 PUSH1 0x1 ADD SWAP1 PUSH2 0x99 JUMP JUMPDEST POP POP POP POP SWAP1 POP SWAP1 JUMP JUMPDEST PUSH1 0x0 JUMPDEST DUP2 MLOAD DUP2 LT ISZERO PUSH2 0x1EC JUMPI PUSH1 0x0 DUP3 DUP3 DUP2 MLOAD DUP2 LT PUSH2 0x155 JUMPI PUSH2 0x154 PUSH2 0x6D1 JUMP JUMPDEST JUMPDEST PUSH1 0x20 MUL PUSH1 0x20 ADD ADD MLOAD SWAP1 DUP1 PUSH1 0x1 DUP2 SLOAD ADD DUP1 DUP3 SSTORE DUP1 SWAP2 POP POP PUSH1 0x1 SWAP1 SUB SWAP1 PUSH1 0x0 MSTORE PUSH1 0x20 PUSH1 0x0 KECCAK256 SWAP1 PUSH1 0x2 MUL ADD PUSH1 0x0 SWAP1 SWAP2 SWAP1 SWAP2 SWAP1 SWAP2 POP PUSH1 0x0 DUP3 ADD MLOAD DUP2 PUSH1 0x0 ADD PUSH1 0x0 PUSH2 0x100 EXP DUP2 SLOAD DUP2 PUSH20 0xFFFFFFFFFFFFFFFFFFFFFFFFFFFFFFFFFFFFFFFF MUL NOT AND SWAP1 DUP4 PUSH20 0xFFFFFFFFFFFFFFFFFFFFFFFFFFFFFFFFFFFFFFFF AND MUL OR SWAP1 SSTORE POP PUSH1 0x20 DUP3 ADD MLOAD DUP2 PUSH1 0x1 ADD SSTORE POP POP DUP1 DUP1 PUSH2 0x1E4 SWAP1 PUSH2 0x72F JUMP JUMPDEST SWAP2 POP POP PUSH2 0x137 JUMP JUMPDEST POP PUSH1 0x0 DUP1 PUSH1 0x0 DUP2 SLOAD DUP2 LT PUSH2 0x203 JUMPI PUSH2 0x202 PUSH2 0x6D1 JUMP JUMPDEST JUMPDEST SWAP1 PUSH1 0x0 MSTORE PUSH1 0x20 PUSH1 0x0 KECCAK256 SWAP1 PUSH1 0x2 MUL ADD PUSH1 0x40 MLOAD DUP1 PUSH1 0x40 ADD PUSH1 0x40 MSTORE SWAP1 DUP2 PUSH1 0x0 DUP3 ADD PUSH1 0x0 SWAP1 SLOAD SWAP1 PUSH2 0x100 EXP SWAP1 DIV PUSH20 0xFFFFFFFFFFFFFFFFFFFFFFFFFFFFFFFFFFFFFFFF AND PUSH20 0xFFFFFFFFFFFFFFFFFFFFFFFFFFFFFFFFFFFFFFFF AND PUSH20 0xFFFFFFFFFFFFFFFFFFFFFFFFFFFFFFFFFFFFFFFF AND DUP2 MSTORE PUSH1 0x20 ADD PUSH1 0x1 DUP3 ADD SLOAD DUP2 MSTORE POP POP SWAP1 POP DUP1 PUSH1 0x0 ADD MLOAD PUSH20 0xFFFFFFFFFFFFFFFFFFFFFFFFFFFFFFFFFFFFFFFF AND PUSH2 0x8FC DUP3 PUSH1 0x20 ADD MLOAD SWAP1 DUP2 ISZERO MUL SWAP1 PUSH1 0x40 MLOAD PUSH1 0x0 PUSH1 0x40 MLOAD DUP1 DUP4 SUB DUP2 DUP6 DUP9 DUP9 CALL SWAP4 POP POP POP POP ISZERO DUP1 ISZERO PUSH2 0x2CC JUMPI RETURNDATASIZE PUSH1 0x0 DUP1 RETURNDATACOPY RETURNDATASIZE PUSH1 0x0 REVERT JUMPDEST POP PUSH32 0x7CE6062B9930767E9D811CA59174B61AEBB54E70A15F7AC91F5C3EEE4B6D9F8D DUP2 PUSH1 0x0 ADD MLOAD DUP3 PUSH1 0x20 ADD MLOAD CALLER PUSH1 0x40 MLOAD PUSH2 0x308 SWAP4 SWAP3 SWAP2 SWAP1 PUSH2 0x807 JUMP JUMPDEST PUSH1 0x40 MLOAD DUP1 SWAP2 SUB SWAP1 LOG1 POP POP JUMP JUMPDEST PUSH1 0x0 DUP2 MLOAD SWAP1 POP SWAP2 SWAP1 POP JUMP JUMPDEST PUSH1 0x0 DUP3 DUP3 MSTORE PUSH1 0x20 DUP3 ADD SWAP1 POP SWAP3 SWAP2 POP POP JUMP JUMPDEST PUSH1 0x0 DUP2 SWAP1 POP PUSH1 0x20 DUP3 ADD SWAP1 POP SWAP2 SWAP1 POP JUMP JUMPDEST PUSH1 0x0 PUSH20 0xFFFFFFFFFFFFFFFFFFFFFFFFFFFFFFFFFFFFFFFF DUP3 AND SWAP1 POP SWAP2 SWAP1 POP JUMP JUMPDEST PUSH1 0x0 PUSH2 0x36B DUP3 PUSH2 0x340 JUMP JUMPDEST SWAP1 POP SWAP2 SWAP1 POP JUMP JUMPDEST PUSH2 0x37B DUP2 PUSH2 0x360 JUMP JUMPDEST DUP3 MSTORE POP POP JUMP JUMPDEST PUSH1 0x0 DUP2 SWAP1 POP SWAP2 SWAP1 POP JUMP JUMPDEST PUSH2 0x394 DUP2 PUSH2 0x381 JUMP JUMPDEST DUP3 MSTORE POP POP JUMP JUMPDEST PUSH1 0x40 DUP3 ADD PUSH1 0x0 DUP3 ADD MLOAD PUSH2 0x3B0 PUSH1 0x0 DUP6 ADD DUP3 PUSH2 0x372 JUMP JUMPDEST POP PUSH1 0x20 DUP3 ADD MLOAD PUSH2 0x3C3 PUSH1 0x20 DUP6 ADD DUP3 PUSH2 0x38B JUMP JUMPDEST POP POP POP POP JUMP JUMPDEST PUSH1 0x0 PUSH2 0x3D5 DUP4 DUP4 PUSH2 0x39A JUMP JUMPDEST PUSH1 0x40 DUP4 ADD SWAP1 POP SWAP3 SWAP2 POP POP JUMP JUMPDEST PUSH1 0x0 PUSH1 0x20 DUP3 ADD SWAP1 POP SWAP2 SWAP1 POP JUMP JUMPDEST PUSH1 0x0 PUSH2 0x3F9 DUP3 PUSH2 0x314 JUMP JUMPDEST PUSH2 0x403 DUP2 DUP6 PUSH2 0x31F JUMP JUMPDEST SWAP4 POP PUSH2 0x40E DUP4 PUSH2 0x330 JUMP JUMPDEST DUP1 PUSH1 0x0 JUMPDEST DUP4 DUP2 LT ISZERO PUSH2 0x43F JUMPI DUP2 MLOAD PUSH2 0x426 DUP9 DUP3 PUSH2 0x3C9 JUMP JUMPDEST SWAP8 POP PUSH2 0x431 DUP4 PUSH2 0x3E1 JUMP JUMPDEST SWAP3 POP POP PUSH1 0x1 DUP2 ADD SWAP1 POP PUSH2 0x412 JUMP JUMPDEST POP DUP6 SWAP4 POP POP POP POP SWAP3 SWAP2 POP POP JUMP JUMPDEST PUSH1 0x0 PUSH1 0x20 DUP3 ADD SWAP1 POP DUP2 DUP2 SUB PUSH1 0x0 DUP4 ADD MSTORE PUSH2 0x466 DUP2 DUP5 PUSH2 0x3EE JUMP JUMPDEST SWAP1 POP SWAP3 SWAP2 POP POP JUMP JUMPDEST PUSH1 0x0 PUSH1 0x40 MLOAD SWAP1 POP SWAP1 JUMP JUMPDEST PUSH1 0x0 DUP1 REVERT JUMPDEST PUSH1 0x0 DUP1 REVERT JUMPDEST PUSH1 0x0 DUP1 REVERT JUMPDEST PUSH1 0x0 PUSH1 0x1F NOT PUSH1 0x1F DUP4 ADD AND SWAP1 POP SWAP2 SWAP1 POP JUMP JUMPDEST PUSH32 0x4E487B7100000000000000000000000000000000000000000000000000000000 PUSH1 0x0 MSTORE PUSH1 0x41 PUSH1 0x4 MSTORE PUSH1 0x24 PUSH1 0x0 REVERT JUMPDEST PUSH2 0x4D0 DUP3 PUSH2 0x487 JUMP JUMPDEST DUP2 ADD DUP2 DUP2 LT PUSH8 0xFFFFFFFFFFFFFFFF DUP3 GT OR ISZERO PUSH2 0x4EF JUMPI PUSH2 0x4EE PUSH2 0x498 JUMP JUMPDEST JUMPDEST DUP1 PUSH1 0x40 MSTORE POP POP POP JUMP JUMPDEST PUSH1 0x0 PUSH2 0x502 PUSH2 0x46E JUMP JUMPDEST SWAP1 POP PUSH2 0x50E DUP3 DUP3 PUSH2 0x4C7 JUMP JUMPDEST SWAP2 SWAP1 POP JUMP JUMPDEST PUSH1 0x0 PUSH8 0xFFFFFFFFFFFFFFFF DUP3 GT ISZERO PUSH2 0x52E JUMPI PUSH2 0x52D PUSH2 0x498 JUMP JUMPDEST JUMPDEST PUSH1 0x20 DUP3 MUL SWAP1 POP PUSH1 0x20 DUP2 ADD SWAP1 POP SWAP2 SWAP1 POP JUMP JUMPDEST PUSH1 0x0 DUP1 REVERT JUMPDEST PUSH1 0x0 DUP1 REVERT JUMPDEST PUSH2 0x552 DUP2 PUSH2 0x360 JUMP JUMPDEST DUP2 EQ PUSH2 0x55D JUMPI PUSH1 0x0 DUP1 REVERT JUMPDEST POP JUMP JUMPDEST PUSH1 0x0 DUP2 CALLDATALOAD SWAP1 POP PUSH2 0x56F DUP2 PUSH2 0x549 JUMP JUMPDEST SWAP3 SWAP2 POP POP JUMP JUMPDEST PUSH2 0x57E DUP2 PUSH2 0x381 JUMP JUMPDEST DUP2 EQ PUSH2 0x589 JUMPI PUSH1 0x0 DUP1 REVERT JUMPDEST POP JUMP JUMPDEST PUSH1 0x0 DUP2 CALLDATALOAD SWAP1 POP PUSH2 0x59B DUP2 PUSH2 0x575 JUMP JUMPDEST SWAP3 SWAP2 POP POP JUMP JUMPDEST PUSH1 0x0 PUSH1 0x40 DUP3 DUP5 SUB SLT ISZERO PUSH2 0x5B7 JUMPI PUSH2 0x5B6 PUSH2 0x544 JUMP JUMPDEST JUMPDEST PUSH2 0x5C1 PUSH1 0x40 PUSH2 0x4F8 JUMP JUMPDEST SWAP1 POP PUSH1 0x0 PUSH2 0x5D1 DUP5 DUP3 DUP6 ADD PUSH2 0x560 JUMP JUMPDEST PUSH1 0x0 DUP4 ADD MSTORE POP PUSH1 0x20 PUSH2 0x5E5 DUP5 DUP3 DUP6 ADD PUSH2 0x58C JUMP JUMPDEST PUSH1 0x20 DUP4 ADD MSTORE POP SWAP3 SWAP2 POP POP JUMP JUMPDEST PUSH1 0x0 PUSH2 0x604 PUSH2 0x5FF DUP5 PUSH2 0x513 JUMP JUMPDEST PUSH2 0x4F8 JUMP JUMPDEST SWAP1 POP DUP1 DUP4 DUP3 MSTORE PUSH1 0x20 DUP3 ADD SWAP1 POP PUSH1 0x40 DUP5 MUL DUP4 ADD DUP6 DUP2 GT ISZERO PUSH2 0x627 JUMPI PUSH2 0x626 PUSH2 0x53F JUMP JUMPDEST JUMPDEST DUP4 JUMPDEST DUP2 DUP2 LT ISZERO PUSH2 0x650 JUMPI DUP1 PUSH2 0x63C DUP9 DUP3 PUSH2 0x5A1 JUMP JUMPDEST DUP5 MSTORE PUSH1 0x20 DUP5 ADD SWAP4 POP POP PUSH1 0x40 DUP2 ADD SWAP1 POP PUSH2 0x629 JUMP JUMPDEST POP POP POP SWAP4 SWAP3 POP POP POP JUMP JUMPDEST PUSH1 0x0 DUP3 PUSH1 0x1F DUP4 ADD SLT PUSH2 0x66F JUMPI PUSH2 0x66E PUSH2 0x482 JUMP JUMPDEST JUMPDEST DUP2 CALLDATALOAD PUSH2 0x67F DUP5 DUP3 PUSH1 0x20 DUP7 ADD PUSH2 0x5F1 JUMP JUMPDEST SWAP2 POP POP SWAP3 SWAP2 POP POP JUMP JUMPDEST PUSH1 0x0 PUSH1 0x20 DUP3 DUP5 SUB SLT ISZERO PUSH2 0x69E JUMPI PUSH2 0x69D PUSH2 0x478 JUMP JUMPDEST JUMPDEST PUSH1 0x0 DUP3 ADD CALLDATALOAD PUSH8 0xFFFFFFFFFFFFFFFF DUP2 GT ISZERO PUSH2 0x6BC JUMPI PUSH2 0x6BB PUSH2 0x47D JUMP JUMPDEST JUMPDEST PUSH2 0x6C8 DUP5 DUP3 DUP6 ADD PUSH2 0x65A JUMP JUMPDEST SWAP2 POP POP SWAP3 SWAP2 POP POP JUMP JUMPDEST PUSH32 0x4E487B7100000000000000000000000000000000000000000000000000000000 PUSH1 0x0 MSTORE PUSH1 0x32 PUSH1 0x4 MSTORE PUSH1 0x24 PUSH1 0x0 REVERT JUMPDEST PUSH32 0x4E487B7100000000000000000000000000000000000000000000000000000000 PUSH1 0x0 MSTORE PUSH1 0x11 PUSH1 0x4 MSTORE PUSH1 0x24 PUSH1 0x0 REVERT JUMPDEST PUSH1 0x0 PUSH2 0x73A DUP3 PUSH2 0x381 JUMP JUMPDEST SWAP2 POP PUSH32 0xFFFFFFFFFFFFFFFFFFFFFFFFFFFFFFFFFFFFFFFFFFFFFFFFFFFFFFFFFFFFFFFF DUP3 EQ ISZERO PUSH2 0x76D JUMPI PUSH2 0x76C PUSH2 0x700 JUMP JUMPDEST JUMPDEST PUSH1 0x1 DUP3 ADD SWAP1 POP SWAP2 SWAP1 POP JUMP JUMPDEST PUSH1 0x0 DUP2 SWAP1 POP SWAP2 SWAP1 POP JUMP JUMPDEST PUSH1 0x0 PUSH2 0x79D PUSH2 0x798 PUSH2 0x793 DUP5 PUSH2 0x340 JUMP JUMPDEST PUSH2 0x778 JUMP JUMPDEST PUSH2 0x340 JUMP JUMPDEST SWAP1 POP SWAP2 SWAP1 POP JUMP JUMPDEST PUSH1 0x0 PUSH2 0x7AF DUP3 PUSH2 0x782 JUMP JUMPDEST SWAP1 POP SWAP2 SWAP1 POP JUMP JUMPDEST PUSH1 0x0 PUSH2 0x7C1 DUP3 PUSH2 0x7A4 JUMP JUMPDEST SWAP1 POP SWAP2 SWAP1 POP JUMP JUMPDEST PUSH2 0x7D1 DUP2 PUSH2 0x7B6 JUMP JUMPDEST DUP3 MSTORE POP POP JUMP JUMPDEST PUSH2 0x7E0 DUP2 PUSH2 0x381 JUMP JUMPDEST DUP3 MSTORE POP POP JUMP JUMPDEST PUSH1 0x0 PUSH2 0x7F1 DUP3 PUSH2 0x340 JUMP JUMPDEST SWAP1 POP SWAP2 SWAP1 POP JUMP JUMPDEST PUSH2 0x801 DUP2 PUSH2 0x7E6 JUMP JUMPDEST DUP3 MSTORE POP POP JUMP JUMPDEST PUSH1 0x0 PUSH1 0x60 DUP3 ADD SWAP1 POP PUSH2 0x81C PUSH1 0x0 DUP4 ADD DUP7 PUSH2 0x7C8 JUMP JUMPDEST PUSH2 0x829 PUSH1 0x20 DUP4 ADD DUP6 PUSH2 0x7D7 JUMP JUMPDEST PUSH2 0x836 PUSH1 0x40 DUP4 ADD DUP5 PUSH2 0x7F8 JUMP JUMPDEST SWAP5 SWAP4 POP POP POP POP JUMP INVALID LOG2 PUSH5 0x6970667358 0x22 SLT KECCAK256 PUSH4 0xE72BB6CA NUMBER PUSH18 0xDE8B544A5A7E4A5E7607F5D7AA1951FF5B8D 0xB6 0xC9 SLOAD 0xBB 0xD0 PUSH29 0xBA64736F6C634300080A00330000000000000000000000000000000000 "},"methodIdentifiers":{"getTips()":"88e4a073","tipAttendants((address,uint256)[])":"a2651ddd"}}}}}