{"contracts/TipAttendantsContract.sol":{"TipAttendantsContract":{"abi":[{"anonymous":false,"inputs":[{"indexed":false,"internalType":"address","name":"","type":"address"},{"indexed":false,"internalType":"uint256","name":"","type":"uint256"}],"name":"Received","type":"event"},{"stateMutability":"payable","type":"fallback"},{"inputs":[],"name":"findTipAmount","outputs":[{"internalType":"uint256","name":"","type":"uint256"}],"stateMutability":"nonpayable","type":"function"},{"inputs":[],"name":"receiveTip","outputs":[],"stateMutability":"payable","type":"function"},{"inputs":[{"components":[{"internalType":"address payable","name":"wallet","type":"address"},{"internalType":"uint256","name":"tip","type":"uint256"}],"internalType":"struct TipAttendantsContract.Tip[]","name":"tipsArray","type":"tuple[]"}],"name":"sendTips","outputs":[],"stateMutability":"payable","type":"function"},{"stateMutability":"payable","type":"receive"}],"evm":{"bytecode":{"linkReferences":{},"object":"608060405234801561001057600080fd5b506108cd806100206000396000f3fe6080604052600436106100385760003560e01c80630f742c59146100b35780632d18e2a5146100de578063f7a1c8fb146100e857610078565b36610078577f88a5966d370b9919b20f3e2c13ff65706f196a4e32cc2c12bf57088f88525874333460405161006e92919061041a565b60405180910390a1005b7f88a5966d370b9919b20f3e2c13ff65706f196a4e32cc2c12bf57088f8852587433346040516100a992919061041a565b60405180910390a1005b3480156100bf57600080fd5b506100c8610104565b6040516100d59190610443565b60405180910390f35b6100e6610235565b005b61010260048036038101906100fd919061068a565b610304565b005b600080600090505b60008054905081101561022c573373ffffffffffffffffffffffffffffffffffffffff1660008281548110610144576101436106d3565b5b906000526020600020906002020160000160009054906101000a900473ffffffffffffffffffffffffffffffffffffffff1673ffffffffffffffffffffffffffffffffffffffff1614156102195760008082815481106101a7576101a66106d3565b5b9060005260206000209060020201600101549050600082815481106101cf576101ce6106d3565b5b9060005260206000209060020201600080820160006101000a81549073ffffffffffffffffffffffffffffffffffffffff0219169055600182016000905550508092505050610232565b808061022490610731565b91505061010c565b50600090505b90565b600061023f610104565b905060003373ffffffffffffffffffffffffffffffffffffffff16670de0b6b3a76400008361026e919061077a565b60405161027a90610805565b60006040518083038185875af1925050503d80600081146102b7576040519150601f19603f3d011682016040523d82523d6000602084013e6102bc565b606091505b5050905080610300576040517f08c379a00000000000000000000000000000000000000000000000000000000081526004016102f790610877565b60405180910390fd5b5050565b60005b81518110156103bc576000828281518110610325576103246106d3565b5b6020026020010151908060018154018082558091505060019003906000526020600020906002020160009091909190915060008201518160000160006101000a81548173ffffffffffffffffffffffffffffffffffffffff021916908373ffffffffffffffffffffffffffffffffffffffff16021790555060208201518160010155505080806103b490610731565b915050610307565b5050565b600073ffffffffffffffffffffffffffffffffffffffff82169050919050565b60006103eb826103c0565b9050919050565b6103fb816103e0565b82525050565b6000819050919050565b61041481610401565b82525050565b600060408201905061042f60008301856103f2565b61043c602083018461040b565b9392505050565b6000602082019050610458600083018461040b565b92915050565b6000604051905090565b600080fd5b600080fd5b600080fd5b6000601f19601f8301169050919050565b7f4e487b7100000000000000000000000000000000000000000000000000000000600052604160045260246000fd5b6104c082610477565b810181811067ffffffffffffffff821117156104df576104de610488565b5b80604052505050565b60006104f261045e565b90506104fe82826104b7565b919050565b600067ffffffffffffffff82111561051e5761051d610488565b5b602082029050602081019050919050565b600080fd5b600080fd5b6000610544826103c0565b9050919050565b61055481610539565b811461055f57600080fd5b50565b6000813590506105718161054b565b92915050565b61058081610401565b811461058b57600080fd5b50565b60008135905061059d81610577565b92915050565b6000604082840312156105b9576105b8610534565b5b6105c360406104e8565b905060006105d384828501610562565b60008301525060206105e78482850161058e565b60208301525092915050565b600061060661060184610503565b6104e8565b905080838252602082019050604084028301858111156106295761062861052f565b5b835b81811015610652578061063e88826105a3565b84526020840193505060408101905061062b565b5050509392505050565b600082601f83011261067157610670610472565b5b81356106818482602086016105f3565b91505092915050565b6000602082840312156106a05761069f610468565b5b600082013567ffffffffffffffff8111156106be576106bd61046d565b5b6106ca8482850161065c565b91505092915050565b7f4e487b7100000000000000000000000000000000000000000000000000000000600052603260045260246000fd5b7f4e487b7100000000000000000000000000000000000000000000000000000000600052601160045260246000fd5b600061073c82610401565b91507fffffffffffffffffffffffffffffffffffffffffffffffffffffffffffffffff82141561076f5761076e610702565b5b600182019050919050565b600061078582610401565b915061079083610401565b9250817fffffffffffffffffffffffffffffffffffffffffffffffffffffffffffffffff04831182151516156107c9576107c8610702565b5b828202905092915050565b600081905092915050565b50565b60006107ef6000836107d4565b91506107fa826107df565b600082019050919050565b6000610810826107e2565b9150819050919050565b600082825260208201905092915050565b7f4661696c656420746f2073656e64207469700000000000000000000000000000600082015250565b600061086160128361081a565b915061086c8261082b565b602082019050919050565b6000602082019050818103600083015261089081610854565b905091905056fea26469706673582212201fa89ac4a3768598f6d4cf0b7cc4c351f9b4d6b8d089d23d77ba61ca2f16c7e764736f6c634300080a0033","opcodes":"PUSH1 0x80 PUSH1 0x40 MSTORE CALLVALUE DUP1 ISZERO PUSH2 0x10 JUMPI PUSH1 0x0 DUP1 REVERT JUMPDEST POP PUSH2 0x8CD DUP1 PUSH2 0x20 PUSH1 0x0 CODECOPY PUSH1 0x0 RETURN INVALID PUSH1 0x80 PUSH1 0x40 MSTORE PUSH1 0x4 CALLDATASIZE LT PUSH2 0x38 JUMPI PUSH1 0x0 CALLDATALOAD PUSH1 0xE0 SHR DUP1 PUSH4 0xF742C59 EQ PUSH2 0xB3 JUMPI DUP1 PUSH4 0x2D18E2A5 EQ PUSH2 0xDE JUMPI DUP1 PUSH4 0xF7A1C8FB EQ PUSH2 0xE8 JUMPI PUSH2 0x78 JUMP JUMPDEST CALLDATASIZE PUSH2 0x78 JUMPI PUSH32 0x88A5966D370B9919B20F3E2C13FF65706F196A4E32CC2C12BF57088F88525874 CALLER CALLVALUE PUSH1 0x40 MLOAD PUSH2 0x6E SWAP3 SWAP2 SWAP1 PUSH2 0x41A JUMP JUMPDEST PUSH1 0x40 MLOAD DUP1 SWAP2 SUB SWAP1 LOG1 STOP JUMPDEST PUSH32 0x88A5966D370B9919B20F3E2C13FF65706F196A4E32CC2C12BF57088F88525874 CALLER CALLVALUE PUSH1 0x40 MLOAD PUSH2 0xA9 SWAP3 SWAP2 SWAP1 PUSH2 0x41A JUMP JUMPDEST PUSH1 0x40 MLOAD DUP1 SWAP2 SUB SWAP1 LOG1 STOP JUMPDEST CALLVALUE DUP1 ISZERO PUSH2 0xBF JUMPI PUSH1 0x0 DUP1 REVERT JUMPDEST POP PUSH2 0xC8 PUSH2 0x104 JUMP JUMPDEST PUSH1 0x40 MLOAD PUSH2 0xD5 SWAP2 SWAP1 PUSH2 0x443 JUMP JUMPDEST PUSH1 0x40 MLOAD DUP1 SWAP2 SUB SWAP1 RETURN JUMPDEST PUSH2 0xE6 PUSH2 0x235 JUMP JUMPDEST STOP JUMPDEST PUSH2 0x102 PUSH1 0x4 DUP1 CALLDATASIZE SUB DUP2 ADD SWAP1 PUSH2 0xFD SWAP2 SWAP1 PUSH2 0x68A JUMP JUMPDEST PUSH2 0x304 JUMP JUMPDEST STOP JUMPDEST PUSH1 0x0 DUP1 PUSH1 0x0 SWAP1 POP JUMPDEST PUSH1 0x0 DUP1 SLOAD SWAP1 POP DUP2 LT ISZERO PUSH2 0x22C JUMPI CALLER PUSH20 0xFFFFFFFFFFFFFFFFFFFFFFFFFFFFFFFFFFFFFFFF AND PUSH1 0x0 DUP3 DUP2 SLOAD DUP2 LT PUSH2 0x144 JUMPI PUSH2 0x143 PUSH2 0x6D3 JUMP JUMPDEST JUMPDEST SWAP1 PUSH1 0x0 MSTORE PUSH1 0x20 PUSH1 0x0 KECCAK256 SWAP1 PUSH1 0x2 MUL ADD PUSH1 0x0 ADD PUSH1 0x0 SWAP1 SLOAD SWAP1 PUSH2 0x100 EXP SWAP1 DIV PUSH20 0xFFFFFFFFFFFFFFFFFFFFFFFFFFFFFFFFFFFFFFFF AND PUSH20 0xFFFFFFFFFFFFFFFFFFFFFFFFFFFFFFFFFFFFFFFF AND EQ ISZERO PUSH2 0x219 JUMPI PUSH1 0x0 DUP1 DUP3 DUP2 SLOAD DUP2 LT PUSH2 0x1A7 JUMPI PUSH2 0x1A6 PUSH2 0x6D3 JUMP JUMPDEST JUMPDEST SWAP1 PUSH1 0x0 MSTORE PUSH1 0x20 PUSH1 0x0 KECCAK256 SWAP1 PUSH1 0x2 MUL ADD PUSH1 0x1 ADD SLOAD SWAP1 POP PUSH1 0x0 DUP3 DUP2 SLOAD DUP2 LT PUSH2 0x1CF JUMPI PUSH2 0x1CE PUSH2 0x6D3 JUMP JUMPDEST JUMPDEST SWAP1 PUSH1 0x0 MSTORE PUSH1 0x20 PUSH1 0x0 KECCAK256 SWAP1 PUSH1 0x2 MUL ADD PUSH1 0x0 DUP1 DUP3 ADD PUSH1 0x0 PUSH2 0x100 EXP DUP2 SLOAD SWAP1 PUSH20 0xFFFFFFFFFFFFFFFFFFFFFFFFFFFFFFFFFFFFFFFF MUL NOT AND SWAP1 SSTORE PUSH1 0x1 DUP3 ADD PUSH1 0x0 SWAP1 SSTORE POP POP DUP1 SWAP3 POP POP POP PUSH2 0x232 JUMP JUMPDEST DUP1 DUP1 PUSH2 0x224 SWAP1 PUSH2 0x731 JUMP JUMPDEST SWAP2 POP POP PUSH2 0x10C JUMP JUMPDEST POP PUSH1 0x0 SWAP1 POP JUMPDEST SWAP1 JUMP JUMPDEST PUSH1 0x0 PUSH2 0x23F PUSH2 0x104 JUMP JUMPDEST SWAP1 POP PUSH1 0x0 CALLER PUSH20 0xFFFFFFFFFFFFFFFFFFFFFFFFFFFFFFFFFFFFFFFF AND PUSH8 0xDE0B6B3A7640000 DUP4 PUSH2 0x26E SWAP2 SWAP1 PUSH2 0x77A JUMP JUMPDEST PUSH1 0x40 MLOAD PUSH2 0x27A SWAP1 PUSH2 0x805 JUMP JUMPDEST PUSH1 0x0 PUSH1 0x40 MLOAD DUP1 DUP4 SUB DUP2 DUP6 DUP8 GAS CALL SWAP3 POP POP POP RETURNDATASIZE DUP1 PUSH1 0x0 DUP2 EQ PUSH2 0x2B7 JUMPI PUSH1 0x40 MLOAD SWAP2 POP PUSH1 0x1F NOT PUSH1 0x3F RETURNDATASIZE ADD AND DUP3 ADD PUSH1 0x40 MSTORE RETURNDATASIZE DUP3 MSTORE RETURNDATASIZE PUSH1 0x0 PUSH1 0x20 DUP5 ADD RETURNDATACOPY PUSH2 0x2BC JUMP JUMPDEST PUSH1 0x60 SWAP2 POP JUMPDEST POP POP SWAP1 POP DUP1 PUSH2 0x300 JUMPI PUSH1 0x40 MLOAD PUSH32 0x8C379A000000000000000000000000000000000000000000000000000000000 DUP2 MSTORE PUSH1 0x4 ADD PUSH2 0x2F7 SWAP1 PUSH2 0x877 JUMP JUMPDEST PUSH1 0x40 MLOAD DUP1 SWAP2 SUB SWAP1 REVERT JUMPDEST POP POP JUMP JUMPDEST PUSH1 0x0 JUMPDEST DUP2 MLOAD DUP2 LT ISZERO PUSH2 0x3BC JUMPI PUSH1 0x0 DUP3 DUP3 DUP2 MLOAD DUP2 LT PUSH2 0x325 JUMPI PUSH2 0x324 PUSH2 0x6D3 JUMP JUMPDEST JUMPDEST PUSH1 0x20 MUL PUSH1 0x20 ADD ADD MLOAD SWAP1 DUP1 PUSH1 0x1 DUP2 SLOAD ADD DUP1 DUP3 SSTORE DUP1 SWAP2 POP POP PUSH1 0x1 SWAP1 SUB SWAP1 PUSH1 0x0 MSTORE PUSH1 0x20 PUSH1 0x0 KECCAK256 SWAP1 PUSH1 0x2 MUL ADD PUSH1 0x0 SWAP1 SWAP2 SWAP1 SWAP2 SWAP1 SWAP2 POP PUSH1 0x0 DUP3 ADD MLOAD DUP2 PUSH1 0x0 ADD PUSH1 0x0 PUSH2 0x100 EXP DUP2 SLOAD DUP2 PUSH20 0xFFFFFFFFFFFFFFFFFFFFFFFFFFFFFFFFFFFFFFFF MUL NOT AND SWAP1 DUP4 PUSH20 0xFFFFFFFFFFFFFFFFFFFFFFFFFFFFFFFFFFFFFFFF AND MUL OR SWAP1 SSTORE POP PUSH1 0x20 DUP3 ADD MLOAD DUP2 PUSH1 0x1 ADD SSTORE POP POP DUP1 DUP1 PUSH2 0x3B4 SWAP1 PUSH2 0x731 JUMP JUMPDEST SWAP2 POP POP PUSH2 0x307 JUMP JUMPDEST POP POP JUMP JUMPDEST PUSH1 0x0 PUSH20 0xFFFFFFFFFFFFFFFFFFFFFFFFFFFFFFFFFFFFFFFF DUP3 AND SWAP1 POP SWAP2 SWAP1 POP JUMP JUMPDEST PUSH1 0x0 PUSH2 0x3EB DUP3 PUSH2 0x3C0 JUMP JUMPDEST SWAP1 POP SWAP2 SWAP1 POP JUMP JUMPDEST PUSH2 0x3FB DUP2 PUSH2 0x3E0 JUMP JUMPDEST DUP3 MSTORE POP POP JUMP JUMPDEST PUSH1 0x0 DUP2 SWAP1 POP SWAP2 SWAP1 POP JUMP JUMPDEST PUSH2 0x414 DUP2 PUSH2 0x401 JUMP JUMPDEST DUP3 MSTORE POP POP JUMP JUMPDEST PUSH1 0x0 PUSH1 0x40 DUP3 ADD SWAP1 POP PUSH2 0x42F PUSH1 0x0 DUP4 ADD DUP6 PUSH2 0x3F2 JUMP JUMPDEST PUSH2 0x43C PUSH1 0x20 DUP4 ADD DUP5 PUSH2 0x40B JUMP JUMPDEST SWAP4 SWAP3 POP POP POP JUMP JUMPDEST PUSH1 0x0 PUSH1 0x20 DUP3 ADD SWAP1 POP PUSH2 0x458 PUSH1 0x0 DUP4 ADD DUP5 PUSH2 0x40B JUMP JUMPDEST SWAP3 SWAP2 POP POP JUMP JUMPDEST PUSH1 0x0 PUSH1 0x40 MLOAD SWAP1 POP SWAP1 JUMP JUMPDEST PUSH1 0x0 DUP1 REVERT JUMPDEST PUSH1 0x0 DUP1 REVERT JUMPDEST PUSH1 0x0 DUP1 REVERT JUMPDEST PUSH1 0x0 PUSH1 0x1F NOT PUSH1 0x1F DUP4 ADD AND SWAP1 POP SWAP2 SWAP1 POP JUMP JUMPDEST PUSH32 0x4E487B7100000000000000000000000000000000000000000000000000000000 PUSH1 0x0 MSTORE PUSH1 0x41 PUSH1 0x4 MSTORE PUSH1 0x24 PUSH1 0x0 REVERT JUMPDEST PUSH2 0x4C0 DUP3 PUSH2 0x477 JUMP JUMPDEST DUP2 ADD DUP2 DUP2 LT PUSH8 0xFFFFFFFFFFFFFFFF DUP3 GT OR ISZERO PUSH2 0x4DF JUMPI PUSH2 0x4DE PUSH2 0x488 JUMP JUMPDEST JUMPDEST DUP1 PUSH1 0x40 MSTORE POP POP POP JUMP JUMPDEST PUSH1 0x0 PUSH2 0x4F2 PUSH2 0x45E JUMP JUMPDEST SWAP1 POP PUSH2 0x4FE DUP3 DUP3 PUSH2 0x4B7 JUMP JUMPDEST SWAP2 SWAP1 POP JUMP JUMPDEST PUSH1 0x0 PUSH8 0xFFFFFFFFFFFFFFFF DUP3 GT ISZERO PUSH2 0x51E JUMPI PUSH2 0x51D PUSH2 0x488 JUMP JUMPDEST JUMPDEST PUSH1 0x20 DUP3 MUL SWAP1 POP PUSH1 0x20 DUP2 ADD SWAP1 POP SWAP2 SWAP1 POP JUMP JUMPDEST PUSH1 0x0 DUP1 REVERT JUMPDEST PUSH1 0x0 DUP1 REVERT JUMPDEST PUSH1 0x0 PUSH2 0x544 DUP3 PUSH2 0x3C0 JUMP JUMPDEST SWAP1 POP SWAP2 SWAP1 POP JUMP JUMPDEST PUSH2 0x554 DUP2 PUSH2 0x539 JUMP JUMPDEST DUP2 EQ PUSH2 0x55F JUMPI PUSH1 0x0 DUP1 REVERT JUMPDEST POP JUMP JUMPDEST PUSH1 0x0 DUP2 CALLDATALOAD SWAP1 POP PUSH2 0x571 DUP2 PUSH2 0x54B JUMP JUMPDEST SWAP3 SWAP2 POP POP JUMP JUMPDEST PUSH2 0x580 DUP2 PUSH2 0x401 JUMP JUMPDEST DUP2 EQ PUSH2 0x58B JUMPI PUSH1 0x0 DUP1 REVERT JUMPDEST POP JUMP JUMPDEST PUSH1 0x0 DUP2 CALLDATALOAD SWAP1 POP PUSH2 0x59D DUP2 PUSH2 0x577 JUMP JUMPDEST SWAP3 SWAP2 POP POP JUMP JUMPDEST PUSH1 0x0 PUSH1 0x40 DUP3 DUP5 SUB SLT ISZERO PUSH2 0x5B9 JUMPI PUSH2 0x5B8 PUSH2 0x534 JUMP JUMPDEST JUMPDEST PUSH2 0x5C3 PUSH1 0x40 PUSH2 0x4E8 JUMP JUMPDEST SWAP1 POP PUSH1 0x0 PUSH2 0x5D3 DUP5 DUP3 DUP6 ADD PUSH2 0x562 JUMP JUMPDEST PUSH1 0x0 DUP4 ADD MSTORE POP PUSH1 0x20 PUSH2 0x5E7 DUP5 DUP3 DUP6 ADD PUSH2 0x58E JUMP JUMPDEST PUSH1 0x20 DUP4 ADD MSTORE POP SWAP3 SWAP2 POP POP JUMP JUMPDEST PUSH1 0x0 PUSH2 0x606 PUSH2 0x601 DUP5 PUSH2 0x503 JUMP JUMPDEST PUSH2 0x4E8 JUMP JUMPDEST SWAP1 POP DUP1 DUP4 DUP3 MSTORE PUSH1 0x20 DUP3 ADD SWAP1 POP PUSH1 0x40 DUP5 MUL DUP4 ADD DUP6 DUP2 GT ISZERO PUSH2 0x629 JUMPI PUSH2 0x628 PUSH2 0x52F JUMP JUMPDEST JUMPDEST DUP4 JUMPDEST DUP2 DUP2 LT ISZERO PUSH2 0x652 JUMPI DUP1 PUSH2 0x63E DUP9 DUP3 PUSH2 0x5A3 JUMP JUMPDEST DUP5 MSTORE PUSH1 0x20 DUP5 ADD SWAP4 POP POP PUSH1 0x40 DUP2 ADD SWAP1 POP PUSH2 0x62B JUMP JUMPDEST POP POP POP SWAP4 SWAP3 POP POP POP JUMP JUMPDEST PUSH1 0x0 DUP3 PUSH1 0x1F DUP4 ADD SLT PUSH2 0x671 JUMPI PUSH2 0x670 PUSH2 0x472 JUMP JUMPDEST JUMPDEST DUP2 CALLDATALOAD PUSH2 0x681 DUP5 DUP3 PUSH1 0x20 DUP7 ADD PUSH2 0x5F3 JUMP JUMPDEST SWAP2 POP POP SWAP3 SWAP2 POP POP JUMP JUMPDEST PUSH1 0x0 PUSH1 0x20 DUP3 DUP5 SUB SLT ISZERO PUSH2 0x6A0 JUMPI PUSH2 0x69F PUSH2 0x468 JUMP JUMPDEST JUMPDEST PUSH1 0x0 DUP3 ADD CALLDATALOAD PUSH8 0xFFFFFFFFFFFFFFFF DUP2 GT ISZERO PUSH2 0x6BE JUMPI PUSH2 0x6BD PUSH2 0x46D JUMP JUMPDEST JUMPDEST PUSH2 0x6CA DUP5 DUP3 DUP6 ADD PUSH2 0x65C JUMP JUMPDEST SWAP2 POP POP SWAP3 SWAP2 POP POP JUMP JUMPDEST PUSH32 0x4E487B7100000000000000000000000000000000000000000000000000000000 PUSH1 0x0 MSTORE PUSH1 0x32 PUSH1 0x4 MSTORE PUSH1 0x24 PUSH1 0x0 REVERT JUMPDEST PUSH32 0x4E487B7100000000000000000000000000000000000000000000000000000000 PUSH1 0x0 MSTORE PUSH1 0x11 PUSH1 0x4 MSTORE PUSH1 0x24 PUSH1 0x0 REVERT JUMPDEST PUSH1 0x0 PUSH2 0x73C DUP3 PUSH2 0x401 JUMP JUMPDEST SWAP2 POP PUSH32 0xFFFFFFFFFFFFFFFFFFFFFFFFFFFFFFFFFFFFFFFFFFFFFFFFFFFFFFFFFFFFFFFF DUP3 EQ ISZERO PUSH2 0x76F JUMPI PUSH2 0x76E PUSH2 0x702 JUMP JUMPDEST JUMPDEST PUSH1 0x1 DUP3 ADD SWAP1 POP SWAP2 SWAP1 POP JUMP JUMPDEST PUSH1 0x0 PUSH2 0x785 DUP3 PUSH2 0x401 JUMP JUMPDEST SWAP2 POP PUSH2 0x790 DUP4 PUSH2 0x401 JUMP JUMPDEST SWAP3 POP DUP2 PUSH32 0xFFFFFFFFFFFFFFFFFFFFFFFFFFFFFFFFFFFFFFFFFFFFFFFFFFFFFFFFFFFFFFFF DIV DUP4 GT DUP3 ISZERO ISZERO AND ISZERO PUSH2 0x7C9 JUMPI PUSH2 0x7C8 PUSH2 0x702 JUMP JUMPDEST JUMPDEST DUP3 DUP3 MUL SWAP1 POP SWAP3 SWAP2 POP POP JUMP JUMPDEST PUSH1 0x0 DUP2 SWAP1 POP SWAP3 SWAP2 POP POP JUMP JUMPDEST POP JUMP JUMPDEST PUSH1 0x0 PUSH2 0x7EF PUSH1 0x0 DUP4 PUSH2 0x7D4 JUMP JUMPDEST SWAP2 POP PUSH2 0x7FA DUP3 PUSH2 0x7DF JUMP JUMPDEST PUSH1 0x0 DUP3 ADD SWAP1 POP SWAP2 SWAP1 POP JUMP JUMPDEST PUSH1 0x0 PUSH2 0x810 DUP3 PUSH2 0x7E2 JUMP JUMPDEST SWAP2 POP DUP2 SWAP1 POP SWAP2 SWAP1 POP JUMP JUMPDEST PUSH1 0x0 DUP3 DUP3 MSTORE PUSH1 0x20 DUP3 ADD SWAP1 POP SWAP3 SWAP2 POP POP JUMP JUMPDEST PUSH32 0x4661696C656420746F2073656E64207469700000000000000000000000000000 PUSH1 0x0 DUP3 ADD MSTORE POP JUMP JUMPDEST PUSH1 0x0 PUSH2 0x861 PUSH1 0x12 DUP4 PUSH2 0x81A JUMP JUMPDEST SWAP2 POP PUSH2 0x86C DUP3 PUSH2 0x82B JUMP JUMPDEST PUSH1 0x20 DUP3 ADD SWAP1 POP SWAP2 SWAP1 POP JUMP JUMPDEST PUSH1 0x0 PUSH1 0x20 DUP3 ADD SWAP1 POP DUP2 DUP2 SUB PUSH1 0x0 DUP4 ADD MSTORE PUSH2 0x890 DUP2 PUSH2 0x854 JUMP JUMPDEST SWAP1 POP SWAP2 SWAP1 POP JUMP INVALID LOG2 PUSH5 0x6970667358 0x22 SLT KECCAK256 0x1F 0xA8 SWAP11 0xC4 LOG3 PUSH23 0x8598F6D4CF0B7CC4C351F9B4D6B8D089D23D77BA61CA2F AND 0xC7 0xE7 PUSH5 0x736F6C6343 STOP ADDMOD EXP STOP CALLER "},"methodIdentifiers":{"findTipAmount()":"0f742c59","receiveTip()":"2d18e2a5","sendTips((address,uint256)[])":"f7a1c8fb"}}}}}