{
  "_format": "hh-sol-artifact-1",
  "contractName": "TipAttendantsContract",
  "sourceName": "contracts/TipAttendantsContract.sol",
  "abi": [
    {
      "anonymous": false,
      "inputs": [
        {
          "indexed": false,
          "internalType": "address",
          "name": "",
          "type": "address"
        },
        {
          "indexed": false,
          "internalType": "uint256",
          "name": "",
          "type": "uint256"
        }
      ],
      "name": "Received",
      "type": "event"
    },
    {
      "stateMutability": "payable",
      "type": "fallback"
    },
    {
      "inputs": [],
      "name": "findTipAmount",
      "outputs": [
        {
          "internalType": "uint256",
          "name": "",
          "type": "uint256"
        }
      ],
      "stateMutability": "nonpayable",
      "type": "function"
    },
    {
      "inputs": [],
      "name": "receiveTip",
      "outputs": [],
      "stateMutability": "payable",
      "type": "function"
    },
    {
      "inputs": [
        {
          "components": [
            {
              "internalType": "address payable",
              "name": "wallet",
              "type": "address"
            },
            {
              "internalType": "uint256",
              "name": "tip",
              "type": "uint256"
            }
          ],
          "internalType": "struct TipAttendantsContract.Tip[]",
          "name": "tipsArray",
          "type": "tuple[]"
        }
      ],
      "name": "sendTips",
      "outputs": [],
      "stateMutability": "payable",
      "type": "function"
    },
    {
      "stateMutability": "payable",
      "type": "receive"
    }
  ],
  "bytecode": "0x608060405234801561001057600080fd5b506108cd806100206000396000f3fe6080604052600436106100385760003560e01c80630f742c59146100b35780632d18e2a5146100de578063f7a1c8fb146100e857610078565b36610078577f88a5966d370b9919b20f3e2c13ff65706f196a4e32cc2c12bf57088f88525874333460405161006e92919061041a565b60405180910390a1005b7f88a5966d370b9919b20f3e2c13ff65706f196a4e32cc2c12bf57088f8852587433346040516100a992919061041a565b60405180910390a1005b3480156100bf57600080fd5b506100c8610104565b6040516100d59190610443565b60405180910390f35b6100e6610235565b005b61010260048036038101906100fd919061068a565b610304565b005b600080600090505b60008054905081101561022c573373ffffffffffffffffffffffffffffffffffffffff1660008281548110610144576101436106d3565b5b906000526020600020906002020160000160009054906101000a900473ffffffffffffffffffffffffffffffffffffffff1673ffffffffffffffffffffffffffffffffffffffff1614156102195760008082815481106101a7576101a66106d3565b5b9060005260206000209060020201600101549050600082815481106101cf576101ce6106d3565b5b9060005260206000209060020201600080820160006101000a81549073ffffffffffffffffffffffffffffffffffffffff0219169055600182016000905550508092505050610232565b808061022490610731565b91505061010c565b50600090505b90565b600061023f610104565b905060003373ffffffffffffffffffffffffffffffffffffffff16670de0b6b3a76400008361026e919061077a565b60405161027a90610805565b60006040518083038185875af1925050503d80600081146102b7576040519150601f19603f3d011682016040523d82523d6000602084013e6102bc565b606091505b5050905080610300576040517f08c379a00000000000000000000000000000000000000000000000000000000081526004016102f790610877565b60405180910390fd5b5050565b60005b81518110156103bc576000828281518110610325576103246106d3565b5b6020026020010151908060018154018082558091505060019003906000526020600020906002020160009091909190915060008201518160000160006101000a81548173ffffffffffffffffffffffffffffffffffffffff021916908373ffffffffffffffffffffffffffffffffffffffff16021790555060208201518160010155505080806103b490610731565b915050610307565b5050565b600073ffffffffffffffffffffffffffffffffffffffff82169050919050565b60006103eb826103c0565b9050919050565b6103fb816103e0565b82525050565b6000819050919050565b61041481610401565b82525050565b600060408201905061042f60008301856103f2565b61043c602083018461040b565b9392505050565b6000602082019050610458600083018461040b565b92915050565b6000604051905090565b600080fd5b600080fd5b600080fd5b6000601f19601f8301169050919050565b7f4e487b7100000000000000000000000000000000000000000000000000000000600052604160045260246000fd5b6104c082610477565b810181811067ffffffffffffffff821117156104df576104de610488565b5b80604052505050565b60006104f261045e565b90506104fe82826104b7565b919050565b600067ffffffffffffffff82111561051e5761051d610488565b5b602082029050602081019050919050565b600080fd5b600080fd5b6000610544826103c0565b9050919050565b61055481610539565b811461055f57600080fd5b50565b6000813590506105718161054b565b92915050565b61058081610401565b811461058b57600080fd5b50565b60008135905061059d81610577565b92915050565b6000604082840312156105b9576105b8610534565b5b6105c360406104e8565b905060006105d384828501610562565b60008301525060206105e78482850161058e565b60208301525092915050565b600061060661060184610503565b6104e8565b905080838252602082019050604084028301858111156106295761062861052f565b5b835b81811015610652578061063e88826105a3565b84526020840193505060408101905061062b565b5050509392505050565b600082601f83011261067157610670610472565b5b81356106818482602086016105f3565b91505092915050565b6000602082840312156106a05761069f610468565b5b600082013567ffffffffffffffff8111156106be576106bd61046d565b5b6106ca8482850161065c565b91505092915050565b7f4e487b7100000000000000000000000000000000000000000000000000000000600052603260045260246000fd5b7f4e487b7100000000000000000000000000000000000000000000000000000000600052601160045260246000fd5b600061073c82610401565b91507fffffffffffffffffffffffffffffffffffffffffffffffffffffffffffffffff82141561076f5761076e610702565b5b600182019050919050565b600061078582610401565b915061079083610401565b9250817fffffffffffffffffffffffffffffffffffffffffffffffffffffffffffffffff04831182151516156107c9576107c8610702565b5b828202905092915050565b600081905092915050565b50565b60006107ef6000836107d4565b91506107fa826107df565b600082019050919050565b6000610810826107e2565b9150819050919050565b600082825260208201905092915050565b7f4661696c656420746f2073656e64207469700000000000000000000000000000600082015250565b600061086160128361081a565b915061086c8261082b565b602082019050919050565b6000602082019050818103600083015261089081610854565b905091905056fea26469706673582212201fa89ac4a3768598f6d4cf0b7cc4c351f9b4d6b8d089d23d77ba61ca2f16c7e764736f6c634300080a0033",
  "linkReferences": {},
  "deployedLinkReferences": {}
}