{
  "_format": "hh-sol-artifact-1",
  "contractName": "TipAttendantsContract",
  "sourceName": "contracts/TipAttendantsContract.sol",
  "abi": [
    {
      "anonymous": false,
      "inputs": [
        {
          "indexed": false,
          "internalType": "address",
          "name": "",
          "type": "address"
        },
        {
          "indexed": false,
          "internalType": "uint256",
          "name": "",
          "type": "uint256"
        }
      ],
      "name": "Received",
      "type": "event"
    },
    {
      "stateMutability": "payable",
      "type": "fallback"
    },
    {
      "inputs": [],
      "name": "findTipAmount",
      "outputs": [
        {
          "internalType": "uint256",
          "name": "",
          "type": "uint256"
        }
      ],
      "stateMutability": "nonpayable",
      "type": "function"
    },
    {
      "inputs": [],
      "name": "getAmount",
      "outputs": [
        {
          "internalType": "uint256",
          "name": "amount",
          "type": "uint256"
        }
      ],
      "stateMutability": "view",
      "type": "function"
    },
    {
      "inputs": [],
      "name": "receiveTip",
      "outputs": [],
      "stateMutability": "payable",
      "type": "function"
    },
    {
      "inputs": [
        {
          "components": [
            {
              "internalType": "address payable",
              "name": "wallet",
              "type": "address"
            },
            {
              "internalType": "uint256",
              "name": "tip",
              "type": "uint256"
            }
          ],
          "internalType": "struct TipAttendantsContract.Tip[]",
          "name": "tipsArray",
          "type": "tuple[]"
        }
      ],
      "name": "sendTips",
      "outputs": [],
      "stateMutability": "payable",
      "type": "function"
    },
    {
      "stateMutability": "payable",
      "type": "receive"
    }
  ],
  "bytecode": "0x608060405234801561001057600080fd5b506109d7806100206000396000f3fe6080604052600436106100435760003560e01c80630f742c59146100be5780632d18e2a5146100e9578063d321fe29146100f3578063f7a1c8fb1461011e57610083565b36610083577f88a5966d370b9919b20f3e2c13ff65706f196a4e32cc2c12bf57088f885258743334604051610079929190610524565b60405180910390a1005b7f88a5966d370b9919b20f3e2c13ff65706f196a4e32cc2c12bf57088f8852587433346040516100b4929190610524565b60405180910390a1005b3480156100ca57600080fd5b506100d361013a565b6040516100e0919061054d565b60405180910390f35b6100f161026b565b005b3480156100ff57600080fd5b5061010861033a565b604051610115919061054d565b60405180910390f35b61013860048036038101906101339190610794565b61040e565b005b600080600090505b600080549050811015610262573373ffffffffffffffffffffffffffffffffffffffff166000828154811061017a576101796107dd565b5b906000526020600020906002020160000160009054906101000a900473ffffffffffffffffffffffffffffffffffffffff1673ffffffffffffffffffffffffffffffffffffffff16141561024f5760008082815481106101dd576101dc6107dd565b5b906000526020600020906002020160010154905060008281548110610205576102046107dd565b5b9060005260206000209060020201600080820160006101000a81549073ffffffffffffffffffffffffffffffffffffffff0219169055600182016000905550508092505050610268565b808061025a9061083b565b915050610142565b50600090505b90565b600061027561013a565b905060003373ffffffffffffffffffffffffffffffffffffffff16670de0b6b3a7640000836102a49190610884565b6040516102b09061090f565b60006040518083038185875af1925050503d80600081146102ed576040519150601f19603f3d011682016040523d82523d6000602084013e6102f2565b606091505b5050905080610336576040517f08c379a000000000000000000000000000000000000000000000000000000000815260040161032d90610981565b60405180910390fd5b5050565b600080600090505b600080549050811015610409573373ffffffffffffffffffffffffffffffffffffffff166000828154811061037a576103796107dd565b5b906000526020600020906002020160000160009054906101000a900473ffffffffffffffffffffffffffffffffffffffff1673ffffffffffffffffffffffffffffffffffffffff1614156103f657600081815481106103dc576103db6107dd565b5b90600052602060002090600202016001015491505061040b565b80806104019061083b565b915050610342565b505b90565b60005b81518110156104c657600082828151811061042f5761042e6107dd565b5b6020026020010151908060018154018082558091505060019003906000526020600020906002020160009091909190915060008201518160000160006101000a81548173ffffffffffffffffffffffffffffffffffffffff021916908373ffffffffffffffffffffffffffffffffffffffff16021790555060208201518160010155505080806104be9061083b565b915050610411565b5050565b600073ffffffffffffffffffffffffffffffffffffffff82169050919050565b60006104f5826104ca565b9050919050565b610505816104ea565b82525050565b6000819050919050565b61051e8161050b565b82525050565b600060408201905061053960008301856104fc565b6105466020830184610515565b9392505050565b60006020820190506105626000830184610515565b92915050565b6000604051905090565b600080fd5b600080fd5b600080fd5b6000601f19601f8301169050919050565b7f4e487b7100000000000000000000000000000000000000000000000000000000600052604160045260246000fd5b6105ca82610581565b810181811067ffffffffffffffff821117156105e9576105e8610592565b5b80604052505050565b60006105fc610568565b905061060882826105c1565b919050565b600067ffffffffffffffff82111561062857610627610592565b5b602082029050602081019050919050565b600080fd5b600080fd5b600061064e826104ca565b9050919050565b61065e81610643565b811461066957600080fd5b50565b60008135905061067b81610655565b92915050565b61068a8161050b565b811461069557600080fd5b50565b6000813590506106a781610681565b92915050565b6000604082840312156106c3576106c261063e565b5b6106cd60406105f2565b905060006106dd8482850161066c565b60008301525060206106f184828501610698565b60208301525092915050565b600061071061070b8461060d565b6105f2565b9050808382526020820190506040840283018581111561073357610732610639565b5b835b8181101561075c578061074888826106ad565b845260208401935050604081019050610735565b5050509392505050565b600082601f83011261077b5761077a61057c565b5b813561078b8482602086016106fd565b91505092915050565b6000602082840312156107aa576107a9610572565b5b600082013567ffffffffffffffff8111156107c8576107c7610577565b5b6107d484828501610766565b91505092915050565b7f4e487b7100000000000000000000000000000000000000000000000000000000600052603260045260246000fd5b7f4e487b7100000000000000000000000000000000000000000000000000000000600052601160045260246000fd5b60006108468261050b565b91507fffffffffffffffffffffffffffffffffffffffffffffffffffffffffffffffff8214156108795761087861080c565b5b600182019050919050565b600061088f8261050b565b915061089a8361050b565b9250817fffffffffffffffffffffffffffffffffffffffffffffffffffffffffffffffff04831182151516156108d3576108d261080c565b5b828202905092915050565b600081905092915050565b50565b60006108f96000836108de565b9150610904826108e9565b600082019050919050565b600061091a826108ec565b9150819050919050565b600082825260208201905092915050565b7f4661696c656420746f2073656e64207469700000000000000000000000000000600082015250565b600061096b601283610924565b915061097682610935565b602082019050919050565b6000602082019050818103600083015261099a8161095e565b905091905056fea2646970667358221220674c4a09edda892b468bc0b0c689979f9618d02c7d459150c04b57449265064464736f6c634300080a0033",
  "linkReferences": {},
  "deployedLinkReferences": {}
}