{
  "_format": "hh-sol-artifact-1",
  "contractName": "TipAttendantsContract",
  "sourceName": "contracts/TipAttendantsContract.sol",
  "abi": [
    {
      "anonymous": false,
      "inputs": [
        {
          "indexed": false,
          "internalType": "address",
          "name": "",
          "type": "address"
        },
        {
          "indexed": false,
          "internalType": "uint256",
          "name": "",
          "type": "uint256"
        }
      ],
      "name": "Received",
      "type": "event"
    },
    {
      "anonymous": false,
      "inputs": [
        {
          "components": [
            {
              "internalType": "address payable",
              "name": "wallet",
              "type": "address"
            },
            {
              "internalType": "uint256",
              "name": "tip",
              "type": "uint256"
            }
          ],
          "indexed": false,
          "internalType": "struct TipAttendantsContract.Tip",
          "name": "tip",
          "type": "tuple"
        }
      ],
      "name": "TipSent",
      "type": "event"
    },
    {
      "anonymous": false,
      "inputs": [
        {
          "components": [
            {
              "internalType": "address payable",
              "name": "wallet",
              "type": "address"
            },
            {
              "internalType": "uint256",
              "name": "tip",
              "type": "uint256"
            }
          ],
          "indexed": false,
          "internalType": "struct TipAttendantsContract.Tip[]",
          "name": "tips",
          "type": "tuple[]"
        }
      ],
      "name": "TipTransferred",
      "type": "event"
    },
    {
      "stateMutability": "payable",
      "type": "fallback"
    },
    {
      "inputs": [],
      "name": "findTipAmount",
      "outputs": [
        {
          "internalType": "uint256",
          "name": "",
          "type": "uint256"
        }
      ],
      "stateMutability": "view",
      "type": "function"
    },
    {
      "inputs": [],
      "name": "getTips",
      "outputs": [
        {
          "components": [
            {
              "internalType": "address payable",
              "name": "wallet",
              "type": "address"
            },
            {
              "internalType": "uint256",
              "name": "tip",
              "type": "uint256"
            }
          ],
          "internalType": "struct TipAttendantsContract.Tip[]",
          "name": "tipsArray",
          "type": "tuple[]"
        }
      ],
      "stateMutability": "view",
      "type": "function"
    },
    {
      "inputs": [],
      "name": "receiveTip",
      "outputs": [],
      "stateMutability": "payable",
      "type": "function"
    },
    {
      "inputs": [
        {
          "components": [
            {
              "internalType": "address payable",
              "name": "wallet",
              "type": "address"
            },
            {
              "internalType": "uint256",
              "name": "tip",
              "type": "uint256"
            }
          ],
          "internalType": "struct TipAttendantsContract.Tip[]",
          "name": "tipsArray",
          "type": "tuple[]"
        }
      ],
      "name": "sendTips",
      "outputs": [],
      "stateMutability": "nonpayable",
      "type": "function"
    },
    {
      "stateMutability": "payable",
      "type": "receive"
    }
  ],
  "bytecode": "0x608060405234801561001057600080fd5b50610b57806100206000396000f3fe6080604052600436106100435760003560e01c80630f742c59146100be5780632d18e2a5146100e957806388e4a073146100f3578063f7a1c8fb1461011e57610083565b36610083577f88a5966d370b9919b20f3e2c13ff65706f196a4e32cc2c12bf57088f8852587433346040516100799291906104e3565b60405180910390a1005b7f88a5966d370b9919b20f3e2c13ff65706f196a4e32cc2c12bf57088f8852587433346040516100b49291906104e3565b60405180910390a1005b3480156100ca57600080fd5b506100d3610147565b6040516100e0919061050c565b60405180910390f35b6100f161021f565b005b3480156100ff57600080fd5b506101086102d6565b6040516101159190610635565b60405180910390f35b34801561012a57600080fd5b5061014560048036038101906101409190610871565b610395565b005b600080600090505b600080549050811015610216573373ffffffffffffffffffffffffffffffffffffffff1660008281548110610187576101866108ba565b5b906000526020600020906002020160000160009054906101000a900473ffffffffffffffffffffffffffffffffffffffff1673ffffffffffffffffffffffffffffffffffffffff16141561020357600081815481106101e9576101e86108ba565b5b90600052602060002090600202016001015491505061021c565b808061020e90610918565b91505061014f565b50600090505b90565b6000610229610147565b90503373ffffffffffffffffffffffffffffffffffffffff166108fc829081150290604051600060405180830381858888f19350505050158015610271573d6000803e3d6000fd5b507f44015fe437f5ade40d1e1b78cb9dd05ef6381ff31489eaf187c937ea72bab3cb60405180604001604052803373ffffffffffffffffffffffffffffffffffffffff168152602001838152506040516102cb9190610990565b60405180910390a150565b60606000805480602002602001604051908101604052809291908181526020016000905b8282101561038c57838290600052602060002090600202016040518060400160405290816000820160009054906101000a900473ffffffffffffffffffffffffffffffffffffffff1673ffffffffffffffffffffffffffffffffffffffff1673ffffffffffffffffffffffffffffffffffffffff168152602001600182015481525050815260200190600101906102fa565b50505050905090565b60005b815181101561044d5760008282815181106103b6576103b56108ba565b5b6020026020010151908060018154018082558091505060019003906000526020600020906002020160009091909190915060008201518160000160006101000a81548173ffffffffffffffffffffffffffffffffffffffff021916908373ffffffffffffffffffffffffffffffffffffffff160217905550602082015181600101555050808061044590610918565b915050610398565b507fa533a8fbf1b59cafe638eb7bc7e793654d2d26bbb310868e3b20a4fd4a235d1a600060405161047e9190610aff565b60405180910390a150565b600073ffffffffffffffffffffffffffffffffffffffff82169050919050565b60006104b482610489565b9050919050565b6104c4816104a9565b82525050565b6000819050919050565b6104dd816104ca565b82525050565b60006040820190506104f860008301856104bb565b61050560208301846104d4565b9392505050565b600060208201905061052160008301846104d4565b92915050565b600081519050919050565b600082825260208201905092915050565b6000819050602082019050919050565b600061055e82610489565b9050919050565b61056e81610553565b82525050565b61057d816104ca565b82525050565b6040820160008201516105996000850182610565565b5060208201516105ac6020850182610574565b50505050565b60006105be8383610583565b60408301905092915050565b6000602082019050919050565b60006105e282610527565b6105ec8185610532565b93506105f783610543565b8060005b8381101561062857815161060f88826105b2565b975061061a836105ca565b9250506001810190506105fb565b5085935050505092915050565b6000602082019050818103600083015261064f81846105d7565b905092915050565b6000604051905090565b600080fd5b600080fd5b600080fd5b6000601f19601f8301169050919050565b7f4e487b7100000000000000000000000000000000000000000000000000000000600052604160045260246000fd5b6106b982610670565b810181811067ffffffffffffffff821117156106d8576106d7610681565b5b80604052505050565b60006106eb610657565b90506106f782826106b0565b919050565b600067ffffffffffffffff82111561071757610716610681565b5b602082029050602081019050919050565b600080fd5b600080fd5b61073b81610553565b811461074657600080fd5b50565b60008135905061075881610732565b92915050565b610767816104ca565b811461077257600080fd5b50565b6000813590506107848161075e565b92915050565b6000604082840312156107a05761079f61072d565b5b6107aa60406106e1565b905060006107ba84828501610749565b60008301525060206107ce84828501610775565b60208301525092915050565b60006107ed6107e8846106fc565b6106e1565b905080838252602082019050604084028301858111156108105761080f610728565b5b835b818110156108395780610825888261078a565b845260208401935050604081019050610812565b5050509392505050565b600082601f8301126108585761085761066b565b5b81356108688482602086016107da565b91505092915050565b60006020828403121561088757610886610661565b5b600082013567ffffffffffffffff8111156108a5576108a4610666565b5b6108b184828501610843565b91505092915050565b7f4e487b7100000000000000000000000000000000000000000000000000000000600052603260045260246000fd5b7f4e487b7100000000000000000000000000000000000000000000000000000000600052601160045260246000fd5b6000610923826104ca565b91507fffffffffffffffffffffffffffffffffffffffffffffffffffffffffffffffff821415610956576109556108e9565b5b600182019050919050565b6040820160008201516109776000850182610565565b50602082015161098a6020850182610574565b50505050565b60006040820190506109a56000830184610961565b92915050565b600081549050919050565b60008190508160005260206000209050919050565b60008160001c9050919050565b600073ffffffffffffffffffffffffffffffffffffffff82169050919050565b6000610a0b610a06836109cb565b6109d8565b9050919050565b6000819050919050565b6000610a2f610a2a836109cb565b610a12565b9050919050565b604082016000808301549050610a4b816109f8565b610a586000860182610565565b5060018301549050610a6981610a1c565b610a766020860182610574565b5050505050565b6000610a898383610a36565b60408301905092915050565b6000600282019050919050565b6000610aad826109ab565b610ab78185610532565b9350610ac2836109b6565b8060005b83811015610af25781610ad98882610a7d565b9750610ae483610a95565b925050600181019050610ac6565b5085935050505092915050565b60006020820190508181036000830152610b198184610aa2565b90509291505056fea264697066735822122036d76677496c98ef2a72cc8cbea759adf0c399bbe724da3182f2c9bf9c662f3c64736f6c634300080a0033",
  "linkReferences": {},
  "deployedLinkReferences": {}
}